:020000040800F2
:1000000000000220A52A0008A5140008B114000869
:10001000B9140008C1140008C91400080000000049
:10002000000000000000000000000000C10C0108FA
:10003000D114000800000000110F010879D5000854
:10004000F52A0008F52A0008F52A0008F52A000814
:10005000F52A0008F52A0008F52A0008F52A000804
:10006000F52A0008F52A0008F52A0008F52A0008F4
:10007000F52A0008F52A0008F52A0008F52A0008E4
:10008000F52A0008F52A0008F52A0008F52A0008D4
:10009000F52A0008F52A0008F52A0008F52A0008C4
:1000A000F52A0008F52A0008F52A0008F52A0008B4
:1000B000E114000841150008A1150008F52A000800
:1000C000F52A0008F52A0008F52A0008011600089C
:1000D000F52A000815160008F52A0008F52A000878
:1000E00031160008F52A0008F52A000861160008F4
:1000F000B516000851170008F52A0008F52A00086F
:10010000F52A0008F52A000865170008F52A0008F6
:10011000F52A0008C5170008F52A0008AD180008E0
:10012000F52A0008F52A0008891900089D19000819
:10013000F52A0008F52A0008F52A0008F52A000823
:10014000F52A0008F52A0008F52A0008F52A000813
:10015000F52A0008F52A0008B1190008F52A000858
:10016000F52A0008F52A0008F52A0008F52A0008F3
:10017000F52A0008F52A0008F52A0008000000000A
:08018000F52A0008F52A000829
:1001900010B5054C237833B9044B13B10448AFF3C1
:1001A00000800123237010BDBC000020000000006F
:1001B000D449010808B5034B1BB103490348AFF309
:1001C000008008BD00000000C0000020D4490108E4
:1001D00001F0FF01102A2BDB10F0070F08D010F8F8
:1001E000013B013A8B422DD010F0070F42B3F6D1FC
:1001F000F0B441EA012141EA014122F007047FF015
:1002000000070023F0E80256083C85EA010586EA6B
:10021000010685FA47F5A3FA87F586FA47F6A5FAA7
:1002200087F68EB9EED1F0BC01F0FF0102F00702B3
:1002300032B110F8013B013A83EA010313B1F8D15E
:100240000020704701387047002D06BF354603383F
:10025000073815F0010F07D1013015F4807F02BF78
:10026000013015F4C03F0130F0BC0138704700BFC9
:1002700053B94AB9002908BF00281CBF4FF0FF310D
:100280004FF0FF3000F06AB9ADF1080C6DE904CE13
:1002900000F006F8DDF804E0DDE9022304B0704761
:1002A0002DE9F047089D0C46002B4ED194468C4515
:1002B0008646B2FA82F262D94AB1C2F12003914075
:1002C00020FA03F30CFA02FC194300FA02FE4FEA8B
:1002D0001C471FFA8CF6B1FBF7F44FEA1E4307FBED
:1002E000141143EA014304FB06F199420AD91CEBBD
:1002F000030304F1FF3080F01281994240F20F8134
:10030000023C6344591A1FFA8EF3B1FBF7F007FB66
:10031000101143EA014300FB06F69E420AD91CEB8A
:10032000030300F1FF3180F0FC809E4240F2F9802F
:10033000634402389B1B40EA044000211DB1D340B6
:100340000022C5E90032BDE8F0878B4205D90DB126
:10035000C5E9000100210846F5E7B3FA83F1002959
:1003600046D1A34202D39042C0F0F080861A64EBDB
:1003700003030120002DE6D0C5E90063E3E7002A6E
:1003800040F09080A1EB0C044FEA1C481FFA8CF758
:100390000121B4FBF8F64FEA1E4308FB164443EA7A
:1003A000044307FB06F0984208D91CEB030306F14F
:1003B000FF3402D2984200F2CD8026461C1A1FFA62
:1003C0008EF3B4FBF8F008FB104443EA044300FB4F
:1003D00007F79F4208D91CEB030300F1FF3402D258
:1003E0009F4200F2B0802046DB1B40EA0640A5E7B2
:1003F000C1F120068B4022FA06F71F4320FA06FCC3
:1004000004FA01F343EA0C03F44000FA01F8380C53
:100410004FEA1349B4FBF0FE1FFA87FC00FB1E44B1
:1004200049EA04440EFB0CF9A14502FA01F20AD98B
:100430003C190EF1FF3A80F08480A14540F28180A2
:10044000AEF1020E3C44A4EB09041FFA83F9B4FB9D
:10045000F0F300FB134449EA044403FB0CFCA445FD
:1004600007D93C1903F1FF3067D2A44565D9023B97
:100470003C4443EA0E40A0FB0293A4EB0C049C42D4
:10048000CE469C4651D34ED055B1B8EB0E0364EB2B
:100490000C0404FA06F6CB401E43CC40C5E90064C8
:1004A000002150E7C2F1200320FA03F10CFA02FC0C
:1004B00024FA03F394400C434FEA1C4800FA02FE6E
:1004C0001FFA8CF7B3FBF8F008FB1031230C43EA5A
:1004D000014300FB07F1994208D91CEB030300F12B
:1004E000FF362CD299422AD9023863445B1AA4B24F
:1004F000B3FBF8F108FB113344EA034401FB07F3B3
:10050000A34208D91CEB040401F1FF3613D2A34225
:1005100011D902396444E41A41EA004139E704463A
:10052000F0E6084606E7C845AED2B9EB020E63EB2B
:10053000070C0138A8E73146EDE7034699E7304656
:10054000D4E7D6467FE7634402384DE706462346A4
:1005500008460FE7023E634430E700BF704700BF24
:1005600080B584B000AF3B4600221A605A609A60A2
:10057000DA60284B284A1A60264B4FF440325A6002
:10058000244B00229A60234B01221A61214B002246
:100590001A76204B002283F820201E4B0022DA62BC
:1005A0001C4B1E4A9A621B4B0022DA60194B022236
:1005B000DA61184B002283F83020164B00225A6172
:1005C000144802F0DBFA0346002B01D000F038FD9E
:1005D00011233B6001237B600723BB603B46194628
:1005E0000C4802F041FC0346002B01D000F028FD2E
:1005F00008233B6002237B603B461946054802F016
:1006000033FC0346002B01D000F01AFD00BF103769
:10061000BD4680BDD8000020002001400100000F31
:1006200080B58AB000AF786007F1140300221A6029
:100630005A609A60DA601A617B681B682F4A93429D
:1006400057D100233B612E4B5B6C2D4A43F48073E2
:1006500053642B4B5B6C03F480733B613B69002359
:10066000FB60274B1B6B264A43F002031363244BAA
:100670001B6B03F00203FB60FB6801237B61032318
:10068000BB610023FB6107F1140319461D4803F009
:1006900097FB1D4B1D4A1A601B4B00225A601A4BD8
:1006A00000229A60184B0022DA60174B4FF48062E8
:1006B0001A61154B4FF400625A61134B4FF400520C
:1006C0009A61114B4FF48072DA610F4B00221A626B
:1006D0000D4B00225A620C4802F064FF0346002BC7
:1006E00001D000F0ADFC7B68074A9A63064A7B683C
:1006F000936300BF2837BD4680BD00BF0020014086
:100700000038024000040240200100201064024032
:1007100080B500AF064B074A1A60054802F026FF75
:100720000346002B01D000F08BFC00BF80BD00BF52
:10073000800100200030024080B485B000AF7860B6
:100740007B681B680B4A93420DD10023FB600A4B68
:100750001B6B094A43F480531363074B1B6B03F471
:100760008053FB60FB6800BF1437BD465DF8047B17
:10077000704700BF003002400038024080B582B0B0
:1007800000AF00237B60144B1B6B134A43F48003C0
:100790001363114B1B6B03F480037B607B680022A7
:1007A00005213A2002F0B8FE3A2002F0D1FE0022E4
:1007B00005213B2002F0B0FE3B2002F0C9FE0022E2
:1007C0000521462002F0A8FE462002F0C1FE00BF2F
:1007D0000837BD4680BD00BF0038024080B400AF7E
:1007E00000BFBD465DF8047B704780B400AF00BF1A
:1007F000BD465DF8047B704780B500AF4D480DF0F5
:100800008BF803464C4A13604C4A002101200DF03E
:1008100091F903464A4A13604A4A002101200DF02B
:1008200089F90346484A1360484A002101200DF027
:1008300081F90346464A1360464A002101200DF023
:1008400079F90346444A1360444A002101200DF01F
:1008500071F90346424A1360424B0022012142488B
:100860000CF0B0FF0346414A1360414B00220121C6
:1008700040480CF0A7FF03463F4A13603F4B00225D
:1008800001213F480CF09EFF03463E4A13603E4B59
:10089000002201213D480CF095FF03463C4A1360BD
:1008A0003C4A042140200DF065FA03463A4A1360A1
:1008B0003A4A012120200DF05DFA0346384A1360C0
:1008C000384A002138480CF0BBFE0346374A136013
:1008D000374A002137480CF0B3FE0346364A13600E
:1008E000364A002136480CF0ABFE0346354A136009
:1008F000354A002135480CF0A3FE0346344A136004
:10090000344A002134480CF09BFE0346334A1360FE
:10091000334A002133480CF093FE0346324A1360F9
:10092000324A002132480CF08BFE0346314A1360F4
:1009300000BF80BD444D01082C040020544D010827
:1009400030040020644D010834040020744D010877
:1009500038040020844D01083C040020944D010817
:1009600040040020044D010845B300086C0300203A
:10097000144D0108BDB700089C030020244D010858
:1009800049B40008CC030020344D01082DC80008EC
:10099000FC030020D44C0108A4010020EC4C010809
:1009A000F8020020D84B0108F9090008880100204E
:1009B000FC4B010895B600088C010020204C010872
:1009C000F1C0000890010020444C0108ADC00008AF
:1009D00094010020684C0108090A000898010020D1
:1009E0008C4C010859C700089C010020B04C01083C
:1009F00001CA0008A001002080B582B000AF786075
:100A000001200CF0AFFEFBE780B582B000AF78604C
:100A100001200CF0A7FEFBE780B58CB000AF07F11A
:100A20001C0300221A605A609A60DA601A6100237F
:100A3000BB61974B1B6B964A43F010031363944BB7
:100A40001B6B03F01003BB61BB6900237B61904B00
:100A50001B6B8F4A43F0040313638D4B1B6B03F036
:100A600004037B617B6900233B61894B1B6B884AD4
:100A700043F080031363864B1B6B03F080033B61E1
:100A80003B690023FB60824B1B6B814A43F00103EF
:100A900013637F4B1B6B03F00103FB60FB680023B8
:100AA000BB607B4B1B6B7A4A43F002031363784BAA
:100AB0001B6B03F00203BB60BB6800237B60744BBD
:100AC0001B6B734A43F008031363714B1B6B03F0FA
:100AD00008037B607B6800224FF4CA516D4803F025
:100AE00023FB00224FF440616B4803F01DFB012201
:100AF0004FF4C061694803F017FB00224FF4006116
:100B0000664803F011FB01224FF48071644803F042
:100B10000BFB00224FF40071614803F005FB49F222
:100B20009C53FB6103233B6200237B6207F11C03A0
:100B300019465C4803F044F94EF6FF43FB6103237A
:100B40003B6200237B6207F11C031946544803F003
:100B500037F91C23FB6103233B6200237B6207F10F
:100B60001C0319464B4803F02BF94FF4A073FB61AB
:100B700001233B6200237B620323BB6207F11C035A
:100B80001946444803F01CF94EF20603FB610323A7
:100B90003B6200237B6207F11C0319463E4803F0C9
:100BA0000FF94FF44063FB6101233B6200237B623A
:100BB0000023BB6207F11C031946374803F000F914
:100BC0004FF48053FB614FF488133B6202237B6236
:100BD00007F11C031946304803F0F2F84CF2FF13FA
:100BE000FB6103233B6200237B6207F11C03194670
:100BF0002A4803F0E5F84FF46063FB6101233B6290
:100C000000237B620123BB6207F11C0319462348C2
:100C100003F0D6F84FF48073FB6101233B6200239D
:100C20007B620023BB6207F11C0319461C4803F0DA
:100C3000C7F84FF40073FB6101233B6200237B6222
:100C40000223BB6207F11C031946154803F0B8F8EC
:100C50004FF4C053FB6101233B6200237B620223FC
:100C6000BB6207F11C0319460A4803F0A9F80323E5
:100C7000FB6100233B6200237B6207F11C031946E2
:100C8000084803F09DF800BF3037BD4680BD00BF67
:100C9000003802400000024000040240000C024004
:100CA000000802400010024080B500AF124B134A0A
:100CB0001A60114B124A5A600F4B00229A600E4B79
:100CC0000022DA600C4B4FF480421A610A4B00227A
:100CD0005A61094B00229A61074B0022DA61064BE8
:100CE00000221A62044803F039FA0346002B01D0AF
:100CF00000F0A6F900BF80BD44040020005400406D
:100D0000A086010080B58AB000AF786007F11403B7
:100D100000221A605A609A60DA601A617B681B6868
:100D2000194A93422BD100233B61184B1B6B174A86
:100D300043F002031363154B1B6B03F002033B618B
:100D40003B69C0237B611223BB610123FB61032349
:100D50003B6204237B6207F1140319460C4803F03D
:100D60002FF80023FB60094B1B6C084A43F4001367
:100D70001364064B1B6C03F40013FB60FB6800BF9D
:100D80002837BD4680BD00BF0054004000380240F7
:100D90000004024080B500AF094B0A4A1A60084BB4
:100DA00003225A60064B13229A60054803F073FE33
:100DB0000346002B01D000F043F900BF80BD00BF07
:100DC000980400200030004080B584B000AF3A4B5A
:100DD00000221A7011F092F811F090F837490020B3
:100DE00010F016FD01F088FE00F06EF80023FB60A5
:100DF000334B1B6C324A43F400131364304B1B6CAF
:100E000003F40013FB60FB680023BB602C4B1B6CDE
:100E10002B4A43F480131364294B1B6C03F4801397
:100E2000BB60BB6800237B60254B1B6B244A43F4EB
:100E300000131363224B1B6B03F400137B607B686E
:100E4000FFF7EAFDFFF79AFC01F00CFD00F074FEDD
:100E500000F038FF01F032F801F0BAF801F026F99D
:100E600001F072F901F07EF800F080FF00F0D2FF8F
:100E700001F020FAFFF74CFC01F0B4F9FFF770FB2A
:100E8000FFF712FF01F0C4FC00F0E0F8FFF782FF6B
:100E900000F088F8084B1B78002B02D1094812F0AB
:100EA000A1FE0BF013F80CF081FBFFF7A5FC0CF092
:100EB000A1FB00BFFDE700BFB00F00201000002025
:100EC00000380240404B010880B594B000AF07F1F4
:100ED000200330220021184612F09EFF07F10C0378
:100EE00000221A605A609A60DA601A610023BB60BF
:100EF0002A4B1B6C294A43F080531364274B1B6C0D
:100F000003F08053BB60BB6800237B60244B1B68ED
:100F1000234A43F480431360214B1B6803F480434E
:100F20007B607B6809233B624FF480337B62012343
:100F30007B630223BB634FF48003FB6308233B64A2
:100F4000A8237B640223BB640723FB6407F120030F
:100F5000184603F0F5FD0346002B01D000F070F8B1
:100F60000F23FB6002233B6100237B614FF4A053FE
:100F7000BB614FF48053FB6107F10C030521184658
:100F800004F056F80346002B01D000F059F804F0A5
:100F900035F900BF5037BD4680BD00BF0038024064
:100FA0000070004080B500AF002205211C2002F037
:100FB000B3FA1C2002F0CCFA002205211D2002F019
:100FC000ABFA1D2002F0C4FA00220521282002F00D
:100FD000A3FA282002F0BCFA002205212B2002F0FF
:100FE0009BFA2B2002F0B4FA002205212C2002F0FB
:100FF00093FA2C2002F0ACFA00220521322002F0F4
:101000008BFA322002F0A4FA00220521372002F0E8
:1010100083FA372002F09CFA00BF80BD80B582B011
:1010200000AF78607B681B68044A934201D101F0ED
:1010300085FD00BF0837BD4680BD00BF00200040D1
:1010400080B400AF72B600BF00BFFDE780B500AF4F
:10105000174B184A1A60164B4FF482725A60144BA1
:1010600000229A60124B0022DA60114B00221A61B2
:101070000F4B00225A610E4B4FF400729A610C4BD9
:101080001822DA610A4B00221A62094B00225A62C6
:10109000074B00229A62064B0A22DA62044804F0E7
:1010A0003FFA0346002B01D0FFF7CAFF00BF80BD07
:1010B000A40400200030014080B58AB000AF786001
:1010C00007F1140300221A605A609A60DA601A610C
:1010D0007B681B683C4A934272D100233B613B4BC7
:1010E0005B6C3A4A43F480535364384B5B6C03F4B3
:1010F00080533B613B690023FB60344B1B6B334ADD
:1011000043F001031363314B1B6B03F00103FB60DE
:10111000FB6820237B610223BB610023FB61012369
:101120003B6205237B6207F114031946284802F04D
:1011300047FE80237B610223BB610123FB61012306
:101140003B6205237B6207F114031946204802F035
:1011500037FE204B204A1A601E4B4FF0C0625A6087
:101160001C4B40229A601B4B0022DA60194B4FF453
:1011700080621A61174B00225A61164B00229A6155
:10118000144B0022DA61134B4FF480321A62114B78
:1011900000225A620F4802F005FA0346002B01D0E4
:1011A000FFF74EFF7B680B4A9A640A4A7B68936399
:1011B00000220521232002F0AFF9232002F0C8F914
:1011C00000BF2837BD4680BD0030014000380240D6
:1011D00000000240240500205864024080B582B01F
:1011E00000AF00237B60124B5B6C114A43F48043D9
:1011F00053640F4B5B6C03F480437B607B6800237C
:101200003B600B4B1B6C0A4A43F080531364084B42
:101210001B6C03F080533B603B6800220F216FF092
:10122000010002F079F900BF0837BD4680BD00BF5C
:101230000038024080B58EB000AF78600023FB62BA
:101240000023BB620023FB60334B1B6C324A43F428
:1012500080731364304B1B6C03F48073FB60FB687A
:1012600007F1100207F114031146184604F00AF9B9
:101270003B6AFB62FB6A002B03D104F0DBF8786366
:1012800004E004F0D7F803465B007B637B6B234AE2
:10129000A2FB03239B0C013BBB62214B214A1A603A
:1012A0001F4B40F2E732DA601D4ABB6A53601C4BA9
:1012B00000221A611A4B00229A60194B00229A618F
:1012C000174804F059FD034687F8333097F8333058
:1012D000002B1BD1124804F0ABFD034687F83330D6
:1012E00097F83330002B11D12D2002F031F97B68B3
:1012F0000F2B08D8002279682D2002F00DF90A4A38
:101300007B68136002E0012387F8333097F83330AD
:1013100018463837BD4680BD0038024083DE1B4387
:1013200084050020002000400400002080B485B027
:1013300000AF78600023FB810223BB600AE0BB683A
:101340007A6813441B781A46FB891344FB81BB68F7
:101350000133BB607B6803331B780133BA689A4260
:10136000EDDDFB89DBB2DB43DBB218461437BD464B
:101370005DF8047B7047000080B582B000AF7860F4
:101380000B46FB707B681B78062B00F2828001A263
:1013900052F823F0B1130008CF130008EB13000834
:1013A000FB1300081D1400083F140008691400080E
:1013B000FB78552B0CBF01230023DBB21A467B6858
:1013C0001A707B6855225A704FF0FF3366E0FB7845
:1013D000552B01D1022200E000227B681A707B6845
:1013E00055229A706FF0010358E07B68FA78DA7042
:1013F0007B6803221A70012350E0FB78072B05D984
:101400007B6800221A706FF0020347E07B68FA786D
:101410001A717B6804221A7002233FE07B68FA7815
:101420005A717B6800221A617B681B79062B01D1F7
:10143000062200E005227B681A7003232EE07B68F9
:101440001B69591C7A6811617A681344FA789A7199
:101450007B681B6903337A681279934202D17B68F7
:1014600006221A70042319E07B6801331846FFF73F
:101470005DFF03461A46FB78934205D07B68002245
:101480001A706FF0620309E07B6800221A70002373
:1014900004E07B6800221A706FF063031846083777
:1014A000BD4680BD80B500AF04F01EF800BFFDE76B
:1014B00080B400AF00BFFDE780B400AF00BFFDE720
:1014C00080B400AF00BFFDE780B400AF00BFFDE710
:1014D00080B400AF00BFBD465DF8047B70470000DC
:1014E000B0B400AF144B1B681B6903F00103012B60
:1014F0001ED1114B1B686FF001021A610E4B1B6865
:101500001B6803F01003102B09D10C4B5968D1E96B
:101510000223541E43F1FF35C1E9024508E0074BA1
:101520005C68D4E90223501C43F10001C4E90201C4
:1015300000BFBD46B0BC7047F4060020E0A8002004
:10154000B0B400AF144B1B681B6903F00103012BFF
:101550001ED1114B1B686FF001021A610E4B1B6804
:101560001B6803F01003102B09D10C4BD968D1E98B
:101570000223541E43F1FF35C1E9024508E0074B41
:10158000DC68D4E90223501C43F10001C4E90201E4
:1015900000BFBD46B0BC7047A8070020E0A80020EF
:1015A000B0B400AF144B1B681B6903F00103012B9F
:1015B0001ED1114B1B686FF001021A610E4B1B68A4
:1015C0001B6803F01003102B09D10C4B9968D1E96B
:1015D0000223541E43F1FF35C1E9024508E0074BE1
:1015E0009C68D4E90223501C43F10001C4E90201C4
:1015F00000BFBD46B0BC70475C080020E0A80020DA
:1016000080B500AF024804F0F9F800BF80BD00BF0C
:10161000A404002080B500AF044B002283F84020D2
:10162000024806F073FA00BF80BD00BF740E0020B0
:1016300080B500AF084B5B6903F48053002B08D0E2
:10164000054B4FF480525A61044B1B6818460CF04E
:101650004DFB00BF80BD00BF003C014038040020AE
:1016600080B500AF114B1B681B6903F00103012B10
:1016700009D10E4B1B686FF001021A610122402153
:101680000B4802F051FD094B1B681B6903F0020374
:10169000022B09D1054B1B686FF002021A61002270
:1016A0004021034802F040FD00BF80BD940C0020A3
:1016B0000000024080B500AF224B1B681B6903F09D
:1016C0000203022B17D11F4B1B686FF002021A6135
:1016D0001D4B1B681D4A52F823305B6A0020984757
:1016E000194B1B68032B03D0174B1B68013300E019
:1016F0000023154A1360134B1B681B6903F0010399
:10170000012B1DD10F4B1B686FF001021A610E4BAC
:101710001B680E4A52F823305B6A012098470A4B37
:101720001B680A4A52F82330184608F0F3FD064BAE
:101730001B68064A52F823301A69024B1B685A6329
:1017400000BF80BD480D0020380600204CAC0020B2
:1017500080B500AF024804F021FF00BF80BD00BF8C
:1017600084050020B0B400AF144B1B681B6903F064
:101770000103012B1ED1114B1B686FF001021A618E
:101780000E4B1B681B6803F01003102B09D10C4B88
:101790001968D1E90223541E43F1FF35C1E902451E
:1017A00008E0074B1C68D4E90223501C43F10001F8
:1017B000C4E9020100BFBD46B0BC7047100900205B
:1017C000E0A8002080B500AF344B1B681B6803F015
:1017D0002003202B14D1314B1B686FF020021A60BC
:1017E0002E4B1B685B68DBB219462D48FFF7C4FD22
:1017F0000346002B04D12B4B1B6818460CF076FADD
:10180000264B1B681B6803F04003402B1BD1234B66
:101810001B686FF040021A60214B93F82830002BB0
:1018200005D0204B1B6818460CF060FA02E01B48FC
:1018300006F0AEFC194B1B68DA68184B1B6822F0E7
:101840004002DA6029E0154B1B681B6803F0800337
:10185000802B1FD1114B1B686FF080021A60104B58
:101860005B6A0F4AD27D033293420BD20C4B5B6A08
:101870005A1C0B494A620C4A13441A78074B1B68DE
:101880005A6007E0054B1B68DA68044B1B6822F0BE
:101890008002DA60014806F039F980BDFC0D0020B5
:1018A0005CAC00204004002070AC00202DE9F04F1B
:1018B00083B000AF2D490968096901F001010129D0
:1018C0004FD12A4909686FF001000861284908686A
:1018D00028490968496A00260A4633469FED260AC8
:1018E00008F0D0FA224B5968244B1B685B6A00222F
:1018F0009A46934652465B469FED1F0A084608F0FB
:10190000C1FA1B4B99681E4B1B685B6A0022984604
:10191000914642464B469FED180A084608F0B2FA37
:10192000134BD968174B1B685B6A00221C4615468F
:1019300022462B469FED100A084608F0A3FA002322
:101940007B600BE00A4A7B6852F823309FED0A0A5D
:10195000184608F0F7FA7B6801337B607B68032B3D
:10196000F0DD00BF0C37BD46BDE8F08FC409002094
:10197000E0A80020100900200AD7233CF40600202C
:101980005C080020A807002080B500AF024801F0E5
:10199000A1FF00BF80BD00BFEC0E002080B500AFEE
:1019A000024801F097FF00BF80BD00BF2405002062
:1019B00080B500AF024801F08DFF00BF80BD00BFC1
:1019C0004C0F002080B586B000AFF860B9607A6037
:1019D00000237B610AE0AFF300800146BB685A1C1C
:1019E000BA60CAB21A707B6901337B617A697B681D
:1019F0009A42F0DB7B6818461837BD4680BD80B53B
:101A000086B000AFF860B9607A6000237B6109E0BE
:101A1000BB685A1CBA601B781846AFF300807B691C
:101A200001337B617A697B689A42F1DB7B681846F7
:101A30001837BD4680BD80B483B000AF78604FF0EA
:101A4000FF3318460C37BD465DF8047B704780B401
:101A500083B000AF786039603B684FF400525A6041
:101A6000002318460C37BD465DF8047B704780B4F0
:101A700083B000AF7860012318460C37BD465DF88F
:101A8000047B704780B485B000AFF860B9607A60BD
:101A9000002318461437BD465DF8047B70470000EC
:101AA00080B586B000AF7860144A154BD31A7B61BD
:101AB0007B693B61134B1B68002B02D1114B124A0F
:101AC0001A60104B1A687B6813443A699A4207D22D
:101AD00012F0F0F903460C221A604FF0FF3309E0D0
:101AE000084B1B68FB60074B1A687B681344054A68
:101AF0001360FB6818461837BD4680BD0000022001
:101B0000000600003C0600207870012080B400AF81
:101B1000084BD3F88830074A43F47003C2F8883082
:101B2000044B4FF000629A6000BFBD465DF8047B35
:101B3000704700BF00ED00E080B596B000AF07F140
:101B4000480300221A605A609A60DA6007F1400385
:101B500000221A605A6007F1240300221A605A60BA
:101B60009A60DA601A615A619A613B1D2022002155
:101B7000184612F051F9514B514A1A604F4B40F23E
:101B800047325A604D4B00229A604C4B40F2E7328C
:101B9000DA604A4B00221A61484B00225A61474BD7
:101BA00080229A61454804F0E7F80346002B01D0F3
:101BB000FFF746FA4FF48053BB6407F14803194618
:101BC0003E4804F019FF0346002B01D0FFF738FA16
:101BD0003A4804F003FA0346002B01D0FFF730FA2D
:101BE00000233B6400237B6407F14003194633481C
:101BF00005F092FB0346002B01D0FFF721FA60238A
:101C00007B620023BB620023FB6200233B6304234F
:101C10007B630023BB630023FB6307F124030022E3
:101C20001946264804F026FE0346002B01D0FFF794
:101C300007FA07F1240304221946204804F01AFE8B
:101C40000346002B01D0FFF7FBF907F1240308221C
:101C500019461A4804F00EFE0346002B01D0FFF788
:101C6000EFF907F124030C221946144804F002FE90
:101C70000346002B01D0FFF7E3F900237B6000232C
:101C8000BB600023FB6000233B6100237B614FF4BA
:101C90000053BB6100233B623B1D1946074805F01A
:101CA000B7FB0346002B01D0FFF7CAF9034800F049
:101CB000FFFC00BF5837BD4680BD00BF4006002076
:101CC0000000014080B58CB000AF07F10C03242266
:101CD0000021184612F0A0F83B1D00221A605A603D
:101CE000214B4FF080421A601F4B00225A601E4B5E
:101CF00000229A601C4B4EF66022DA601A4B0022DA
:101D00001A61194B80229A610323FB6000233B6117
:101D100001237B610023BB610023FB6100233B6245
:101D200001237B620023BB620023FB6207F10C03EB
:101D300019460D4804F0F0FA0346002B01D0FFF7D6
:101D40007FF900237B600023BB603B1D19460648DA
:101D500005F0E2FA0346002B01D0FFF771F900BF4E
:101D60003037BD4680BD00BFF406002080B58CB082
:101D700000AF07F10C0324220021184612F04CF8A2
:101D80003B1D00221A605A60204B214A1A601F4BEB
:101D900000225A601D4B00229A601C4B4EF66022B6
:101DA000DA601A4B00221A61184B80229A610323D1
:101DB000FB6000233B6101237B610023BB610023A7
:101DC000FB6100233B6201237B620023BB62002393
:101DD000FB6207F10C0319460C4804F09DFA034618
:101DE000002B01D0FFF72CF900237B600023BB60A0
:101DF0003B1D1946054805F08FFA0346002B01D01C
:101E0000FFF71EF900BF3037BD4680BDA807002090
:101E10000004004080B58CB000AF07F10C03242211
:101E20000021184611F0F8FF3B1D00221A605A608D
:101E3000204B214A1A601F4B00225A601D4B002282
:101E40009A601C4B4EF66022DA601A4B00221A612F
:101E5000184B80229A610323FB6000233B6101231E
:101E60007B610023BB610023FB6100233B620123F4
:101E70007B620023BB620023FB6207F10C0319465F
:101E80000C4804F049FA0346002B01D0FFF7D8F8BC
:101E900000237B600023BB603B1D1946054805F00D
:101EA0003BFA0346002B01D0FFF7CAF800BF3037DA
:101EB000BD4680BD5C0800200008004080B58CB0A5
:101EC00000AF07F10C0324220021184611F0A4FFF3
:101ED0003B1D00221A605A60204B214A1A601F4B9A
:101EE00000225A601D4B00229A601C4B4EF6602265
:101EF000DA601A4B00221A61184B80229A61032380
:101F0000FB6000233B6101237B610023BB61002355
:101F1000FB6100233B6201237B620023BB62002341
:101F2000FB6207F10C0319460C4804F0F5F903466F
:101F3000002B01D0FFF784F800237B600023BB60F7
:101F40003B1D1946054805F0E7F90346002B01D073
:101F5000FFF776F800BF3037BD4680BD100900207E
:101F6000000C004080B582B000AF3B4600221A60F2
:101F70005A60154B154A1A60134B53225A60124B84
:101F800000229A60104B42F20F72DA600E4B8022F0
:101F90009A610D4803F0F0FE0346002B01D0FFF7D5
:101FA0004FF800233B6000237B603B461946064800
:101FB00005F0B2F90346002B01D0FFF741F800BF4E
:101FC0000837BD4680BD00BFC40900200014004092
:101FD00080B58CB000AF07F1200300221A605A6070
:101FE0009A60DA603B1D00221A605A609A60DA60DB
:101FF0001A615A619A612B4B2B4A1A60294B40F2A5
:1020000047325A60274B00229A60264B40F2E73253
:10201000DA60244B00221A61224B80229A61214807
:1020200003F0AAFE0346002B01D0FFF709F84FF496
:1020300080533B6207F1200319461A4804F0DCFC88
:102040000346002B01D0FEF7FBFF164803F0C6FF46
:102050000346002B01D0FEF7F3FF60237B600023D3
:10206000BB600023FB6004237B613B1D00221946FB
:102070000C4804F0FFFB0346002B01D0FEF7E0FF05
:102080003B1D04221946074804F0F4FB0346002BCD
:1020900001D0FEF7D5FF034800F00AFB00BF303740
:1020A000BD4680BD780A00200040014080B588B060
:1020B00000AF3B1D00221A605A609A60DA601A6114
:1020C0005A619A611E4B1F4A1A601D4B40F24732FB
:1020D0005A601B4B00229A60194B40F2E732DA60DB
:1020E000174B00221A61164B80229A61144803F0A4
:1020F00043FE0346002B01D0FEF7A2FF104803F079
:102100006DFF0346002B01D0FEF79AFF60237B6032
:102110000023BB600023FB6004237B613B1D002286
:102120001946074804F0A6FB0346002B01D0FEF732
:1021300087FF034800F0BCFA00BF2037BD4680BDD2
:102140002C0B00200044014080B588B000AF3B1D3F
:1021500000221A605A609A60DA601A615A619A61C4
:102160001E4B1F4A1A601D4B40F247325A601B4BF0
:1021700000229A60194B40F2E732DA60174B0022D6
:102180001A61164B80229A61144803F0F5FD03464C
:10219000002B01D0FEF754FF104803F01FFF034649
:1021A000002B01D0FEF74CFF60237B600023BB6057
:1021B0000023FB6004237B613B1D00221946074876
:1021C00004F058FB0346002B01D0FEF739FF03480B
:1021D00000F06EFA00BF2037BD4680BDE00B002046
:1021E0000048014080B58CB000AF07F12003002209
:1021F0001A605A609A60DA603B1D00221A605A60C9
:102200009A60DA601A615A619A61284B284A1A600A
:10221000264B40F247325A60244B00229A60234BEF
:102220006322DA60214B00221A61204B80229A61DE
:102230001E4803F0A1FD0346002B01D0FEF700FF6E
:102240004FF480533B6207F120031946174804F00E
:10225000D3FB0346002B01D0FEF7F2FE134803F038
:1022600057FE0346002B01D0FEF7EAFE00237B60F9
:102270003223BB600023FB6000237B613B1D0022F7
:1022800019460A4804F09AFA0346002B01D0FEF7DB
:10229000D7FE064B1B689A69044B1B6842F0080284
:1022A0009A6100BF3037BD4680BD00BF940C00204E
:1022B0000018004080B588B000AF3B1D00221A60B6
:1022C0005A609A60DA601A615A619A611C4B1D4A21
:1022D0001A601B4B53225A60194B00229A60184B0C
:1022E00041F28732DA60164B00221A61144B002249
:1022F0009A61134803F040FD0346002B01D0FEF71E
:102300009FFE0F4803F004FE0346002B01D0FEF7AA
:1023100097FE00237B600023BB600023FB6000234B
:102320007B613B1D00221946054804F047FA03462D
:10233000002B01D0FEF784FE00BF2037BD4680BDD4
:10234000480D0020001C004080B48BB000AF7860C6
:102350007B681B68474A93420ED100237B62464B41
:102360005B6C454A43F001035364434B5B6C03F0E1
:1023700001037B627B6A76E07B681B683F4A93427D
:102380000ED100233B623C4B1B6C3B4A43F02003C5
:102390001364394B1B6C03F020033B623B6A62E021
:1023A0007B681B68364A93420ED10023FB61324B97
:1023B0005B6C314A43F4803353642F4B5B6C03F402
:1023C0008033FB61FB694EE07B681B682D4A9342BA
:1023D0000ED10023BB61284B5B6C274A43F40033CA
:1023E0005364254B5B6C03F40033BB61BB693AE07B
:1023F0007B681B68244A93420ED100237B611E4BED
:102400005B6C1D4A43F4802353641B4B5B6C03F4E9
:1024100080237B617B6926E07B681B681B4A9342B3
:102420000ED100233B61144B1B6C134A43F0400355
:102430001364114B1B6C03F040033B613B6912E0DA
:102440007B681B68124A93420DD10023FB600A4B44
:102450001B6C094A43F080031364074B1B6C03F0A9
:102460008003FB60FB6800BF2C37BD465DF8047B32
:10247000704700BF000001400038024000140040D7
:102480000040014000440140004801400018004065
:10249000001C004080B590B000AF786007F12C03BD
:1024A00000221A605A609A60DA601A617B681B68C1
:1024B000B3F1804F4BD10023BB62764B1B6C754A46
:1024C00043F001031364734B1B6C03F00103BB6205
:1024D000BB6A00237B626F4B1B6B6E4A43F00103A8
:1024E00013636C4B1B6B03F001037B627B6A00235D
:1024F0003B62684B1B6B674A43F002031363654BF7
:102500001B6B03F002033B623B6A4FF40043FB6228
:1025100002233B6301237B630323BB630123FB6330
:1025200007F12C0319465C4801F04AFC0823FB62C2
:1025300002233B6301237B630323BB630123FB6310
:1025400007F12C031946554801F03AFC9DE07B68E1
:102550001B68534A93422CD10023FB614D4B1B6CEB
:102560004C4A43F0020313644A4B1B6C03F0020312
:10257000FB61FB690023BB61464B1B6B454A43F083
:1025800002031363434B1B6B03F00203BB61BB6984
:102590003023FB6202233B6300237B630323BB6383
:1025A0000223FB6307F12C0319463C4801F008FCA9
:1025B0006BE07B681B683B4A934235D100237B610B
:1025C000344B1B6C334A43F004031364314B1B6CD4
:1025D00003F004037B617B6900233B612D4B1B6B84
:1025E0002C4A43F0080313632A4B1B6B03F00803C8
:1025F0003B613B694FF44053FB6202233B63002382
:102600007B630323BB630223FB6307F12C0319469F
:10261000254801F0D5FB002205211E2000F07CFF9B
:102620001E2000F095FF30E07B681B681F4A934234
:102630002BD10023FB60174B1B6C164A43F0080399
:102640001364144B1B6C03F00803FB60FB6800234E
:10265000BB60104B1B6B0F4A43F0010313630D4B20
:102660001B6B03F00103BB60BB680323FB62022307
:102670003B6301237B630323BB630223FB6307F1FB
:102680002C031946044801F09BFB00BF4037BD46B0
:1026900080BD00BF0038024000000240000402403C
:1026A0000004004000080040000C0240000C004004
:1026B00080B58CB000AF786007F11C0300221A606F
:1026C0005A609A60DA601A617B681B68494A9342D3
:1026D0001FD10023BB61484B1B6B474A43F01003DB
:1026E0001363454B1B6B03F01003BB61BB694FF4D5
:1026F000D443FB6102233B6200237B620223BB6263
:102700000123FB6207F11C0319463C4801F058FB0A
:102710006CE07B681B683A4A93421ED100237B61C0
:10272000354B1B6B344A43F010031363324B1B6B66
:1027300003F010037B617B696023FB6102233B6232
:1027400000237B620023BB620323FB6207F11C03AF
:1027500019462A4801F034FB48E07B681B68294A87
:1027600093421FD100233B61234B1B6B224A43F052
:1027700002031363204B1B6B03F002033B613B69B5
:102780004FF48073FB6102233B6200237B620023D2
:10279000BB620323FB6207F11C0319461A4801F0D0
:1027A0000FFB23E07B681B68184A93421ED100236D
:1027B000FB60114B1B6B104A43F0020313630E4B7B
:1027C0001B6B03F00203FB60FB684FF40073FB61BB
:1027D00002233B6200237B620223BB620323FB6272
:1027E00007F11C031946084801F0EAFA00BF303728
:1027F000BD4680BD0000014000380240001002408C
:1028000000400140004401400004024000480140F3
:1028100080B500AF114B124A1A60104B4FF4E132F1
:102820005A600E4B00229A600C4B0022DA600B4B70
:1028300000221A61094B0C225A61084B00229A614E
:10284000064B0022DA61054804F0B0FE0346002B77
:1028500001D0FEF7F5FB00BF80BD00BFFC0D0020DE
:102860000050004080B500AF104B114A1A600F4B6A
:10287000104A5A600D4B00229A600C4B0022DA601D
:102880000A4B00221A61094B0C225A61074B0022A5
:102890009A61064B0022DA61044804F029FE0346DF
:1028A000002B01D0FEF7CCFB00BF80BD740E0020D2
:1028B0000010014040420F0080B58CB000AF78603E
:1028C00007F11C0300221A605A609A60DA601A61EC
:1028D0007B681B686A4A934235D10023BB61694B10
:1028E0001B6C684A43F480131364664B1B6C03F43F
:1028F0008013BB61BB6900237B61624B1B6B614A28
:1029000043F0040313635F4B1B6B03F004037B6111
:102910007B694FF48053FB6112233B6200237B628F
:102920000323BB620823FB6207F11C0319465648C8
:1029300001F046FA00220521352000F0EDFD35209A
:1029400000F006FE98E07B681B68504A934240F016
:10295000938000233B614B4B5B6C4A4A43F010036E
:102960005364484B5B6C03F010033B613B690023ED
:10297000FB60444B1B6B434A43F001031363414B21
:102980001B6B03F00103FB60FB684FF4C063FB614A
:1029900002233B6200237B620323BB620723FB62AB
:1029A00007F11C0319463A4801F00AFA394B3A4A32
:1029B0001A60384B4FF000625A60364B00229A6022
:1029C000344B0022DA60334B4FF480621A61314B92
:1029D00000225A612F4B00229A612E4B0022DA61AD
:1029E0002C4B4FF400321A622A4B00225A622948BB
:1029F00000F0D8FD0346002B01D0FEF721FB7B68D9
:102A0000244ADA63234A7B689363244B244A1A607E
:102A1000224B4FF000625A60204B40229A601F4BBD
:102A20000022DA601D4B4FF480621A611B4B0022BA
:102A30005A611A4B00229A61184B0022DA61174B37
:102A40004FF480321A62154B00225A62134800F08C
:102A5000A9FD0346002B01D0FEF7F2FA7B680F4A6E
:102A60009A630E4A7B68936300220521252000F0BB
:102A700053FD252000F06CFD00BF3037BD4680BD02
:102A800000500040003802400008024000100140A1
:102A900000000240EC0E0020406402404C0F002079
:102AA000B8640240DFF834D0FFF730F80C480D4925
:102AB0000D4A002302E0D458C4500433C4188C4299
:102AC000F9D30A4A0A4C002301E013600432A242FF
:102AD000FBD311F0F5F9FEF777F9704700000220FB
:102AE00000000020BC00002094560108BC0000201B
:102AF00074700120FEE7000080B500AF0E4B1B682C
:102B00000D4A43F4007313600B4B1B680A4A43F4ED
:102B100080631360084B1B68074A43F4807313609B
:102B2000032000F0EEFC0F20FEF784FBFEF756FBBF
:102B30000023184680BD00BF003C024080B400AFB7
:102B4000064B1B781A46064B1B681344044A136055
:102B500000BFBD465DF8047B704700BF0800002041
:102B6000AC0F002080B400AF034B1B681846BD4675
:102B70005DF8047B704700BFAC0F002080B584B0C7
:102B800000AF78600023FB737B68002B01D1012329
:102B900033E07B681B6C002B09D17868FDF740FDA2
:102BA0007B6800225A647B68002283F83C207B68A3
:102BB0001B6C03F01003002B18D17B681B6C23F4F3
:102BC000885323F0020343F002027B681A6478689A
:102BD00000F06CFA7B6800225A647B681B6C23F05F
:102BE000030343F001027B681A6401E00123FB73D5
:102BF0007B68002283F83C20FB7B18461037BD46DB
:102C000080BD000080B588B000AFF860B9607A6020
:102C100000237B610023FB77FB6893F83C30012B9A
:102C200001D10223EBE0FB68012283F83C20FB6822
:102C30001B689B6803F00103012B18D0FB681B681D
:102C40009A68FB681B6842F001029A606E4B1B6831
:102C50006E4AA2FB03239A0C13465B0013447B616C
:102C600002E07B69013B7B617B69002BF9D1FB684A
:102C70001B689B6803F48073B3F5807F07D1FB6802
:102C80001B689A68FB681B6822F480729A60FB6874
:102C90001B689B6803F00103012B40F0A380FB68D5
:102CA0001B6C23F4E06323F0010343F48072FB68A0
:102CB0001A64FB681B685B6803F48063002B07D011
:102CC000FB681B6C23F4405343F48052FB681A6486
:102CD000FB681B6C03F48053B3F5805F06D1FB687F
:102CE0005B6C23F00602FB685A6402E0FB6800227A
:102CF0005A64FB68002283F83C20454BBB61FB68AB
:102D00009B6B444ADA63FB689B6B434A1A64FB681B
:102D10009B6B424ADA64FB681B686FF022021A6000
:102D2000FB681B685A68FB681B6842F080625A6047
:102D3000FB681B689A68FB681B6842F480729A60A3
:102D4000FB68986BFB681B684C331946BA687B6854
:102D500000F0D6FC0346FB77BB695B6803F01F03FA
:102D6000002B2AD1FB681B682D4A934215D0FB68C3
:102D70001B682C4A934205D1254B5B6803F01F0367
:102D8000002B0AD0FB681B68274A934236D1204BA0
:102D90005B6803F01003002B30D1FB681B689B6855
:102DA00003F04053002B29D1FB681B689A68FB682D
:102DB0001B6842F080429A6020E0FB681B68184A5A
:102DC00093421BD1FB681B689B6803F04053002BA8
:102DD00014D1FB681B689A68FB681B6842F080424C
:102DE0009A600BE0FB681B6C43F01002FB681A64EE
:102DF000FB685B6C43F00102FB685A64FB7F18467A
:102E00002037BD4680BD00BF0000002083DE1B438D
:102E100000230140A53200085F3300087B3300081F
:102E200000200140002101400022014080B483B015
:102E300000AF786000BF0C37BD465DF8047B70477B
:102E400080B483B000AF786000BF0C37BD465DF83A
:102E5000047B704780B483B000AF786000BF0C374C
:102E6000BD465DF8047B704780B485B000AF7860E4
:102E700039600023BB607B6893F83C30012B01D1A3
:102E8000022305E17B68012283F83C203B681B6834
:102E9000092B25D97B681B68D9683B681B689BB2E6
:102EA0001A4613465B0013441E3B072202FA03F343
:102EB000DA437B681B680A40DA607B681B68D96864
:102EC0003B689A683B681B689BB2184603465B00E8
:102ED00003441E3B9A407B681B680A43DA6022E089
:102EE0007B681B6819693B681B689BB21A461346CE
:102EF0005B001344072202FA03F3DA437B681B6882
:102F00000A401A617B681B6819693B689A683B68CC
:102F10001B689BB2184603465B0003449A407B68DB
:102F20001B680A431A613B685B68062B24D87B68E0
:102F30001B68596B3B685A6813469B001344053B5A
:102F40001F2202FA03F3DA437B681B680A405A63C4
:102F50007B681B68596B3B681B689BB218463B68D3
:102F60005A6813469B001344053B00FA03F27B6842
:102F70001B680A435A634CE03B685B680C2B24D8FF
:102F80007B681B68196B3B685A6813469B001344A7
:102F9000233B1F2202FA03F3DA437B681B680A40D3
:102FA0001A637B681B68196B3B681B689BB21846E9
:102FB0003B685A6813469B001344233B00FA03F214
:102FC0007B681B680A431A6323E07B681B68D96A25
:102FD0003B685A6813469B001344413B1F2202FA88
:102FE00003F3DA437B681B680A40DA627B681B687C
:102FF000D96A3B681B689BB218463B685A681346FF
:103000009B001344413B00FA03F27B681B680A43B0
:10301000DA62224BFB607B681B68214A934209D12C
:103020003B681B68122B05D1FB685B6843F4800288
:10303000FB685A607B681B68194A934223D13B683E
:103040001B68102B03D03B681B68112B1BD1FB683E
:103050005B6843F40002FB685A603B681B68102BF6
:1030600011D1104B1B68104AA2FB03239A0C134684
:103070009B0013445B00BB6002E0BB68013BBB608C
:10308000BB68002BF9D17B68002283F83C20002329
:1030900018461437BD465DF8047B70470023014095
:1030A000002001400000002083DE1B4380B485B077
:1030B00000AF7860794BFB60FB685B6823F44032BB
:1030C000FB685A60FB685A687B685B681A43FB6858
:1030D0005A607B681B685A687B681B6822F48072A0
:1030E0005A607B681B6859687B681B691A027B6899
:1030F0001B680A435A607B681B685A687B681B68B8
:1031000022F040725A607B681B6859687B689A6835
:103110007B681B680A435A607B681B689A687B68F7
:103120001B6822F400629A607B681B6899687B6860
:10313000DA687B681B680A439A607B689B6A584A16
:10314000934222D07B681B689A687B681B6822F0D8
:1031500070629A607B681B6899687B689A6A7B6872
:103160001B680A439A607B681B689A687B681B68C7
:1031700022F040529A607B681B6899687B68DA6A23
:103180007B681B680A439A600FE07B681B689A683B
:103190007B681B6822F070629A607B681B689A6883
:1031A0007B681B6822F040529A607B681B689A68B3
:1031B0007B681B6822F002029A607B681B68996832
:1031C0007B681B7E5A007B681B680A439A607B6899
:1031D00093F82030002B1BD07B681B685A687B68F3
:1031E0001B6842F400625A607B681B685A687B68FF
:1031F0001B6822F460425A607B681B6859687B68D0
:103200005B6A013B5A037B681B680A435A6007E00C
:103210007B681B685A687B681B6822F400625A60EE
:103220007B681B68DA6A7B681B6822F47002DA62CA
:103230007B681B68D96A7B68DB69013B1A057B6880
:103240001B680A43DA627B681B689A687B681B68A4
:1032500022F400729A607B681B6899687B6893F817
:1032600030305A027B681B680A439A607B681B688F
:103270009A687B681B6822F480629A607B681B688E
:1032800099687B685B699A027B681B680A439A604D
:1032900000BF1437BD465DF8047B70470023014032
:1032A0000100000F80B584B000AF78607B689B6B35
:1032B000FB60FB681B6C03F05003002B3CD1FB68E8
:1032C0001B6C43F40072FB681A64FB681B689B6804
:1032D00003F04053002B2BD1FB681B7E002B27D122
:1032E000FB681B68DB6A03F47003002B06D0FB68E5
:1032F0001B689B6803F48063002B19D1FB681B6873
:103300005A68FB681B6822F020025A60FB681B6C3D
:1033100023F48072FB681A64FB681B6C03F480530F
:10332000002B05D1FB681B6C43F00102FB681A649B
:10333000F868FFF77BFD0EE0FB681B6C03F01003E1
:10334000002B03D0F868FFF785FD04E0FB689B6B5A
:10335000DB6C7868984700BF1037BD4680BD80B5EC
:1033600084B000AF78607B689B6BFB60F868FFF708
:1033700067FD00BF1037BD4680BD80B584B000AF8B
:1033800078607B689B6BFB60FB6840221A64FB687B
:103390005B6C43F00402FB685A64F868FFF75AFD5F
:1033A00000BF1037BD4680BD80B485B000AF7860E7
:1033B0007B6803F00703FB600C4BDB68BB60BA68FB
:1033C0004FF6FF031340BB60FB681A02BB68134350
:1033D00043F0BF6343F40033BB60044ABB68D3606F
:1033E00000BF1437BD465DF8047B704700ED00E078
:1033F00080B400AF044BDB681B0A03F007031846D8
:10340000BD465DF8047B704700ED00E080B483B0FA
:1034100000AF0346FB7197F90730002B0BDBFB79FC
:1034200003F01F02074997F907305B09012000FAF2
:1034300002F241F8232000BF0C37BD465DF8047B43
:10344000704700BF00E100E080B483B000AF0346E6
:103450003960FB7197F90730002B0ADB3B68DAB261
:103460000C4997F907301201D2B20B4483F80023BC
:103470000AE03B68DAB20849FB7903F00F03043B2A
:103480001201D2B20B441A7600BF0C37BD465DF86C
:10349000047B704700E100E000ED00E080B489B0FB
:1034A00000AFF860B9607A60FB6803F00703FB6166
:1034B000FB69C3F10703042B28BF0423BB61FB692D
:1034C0000433062B02D9FB69033B00E000237B6138
:1034D0004FF0FF32BB6902FA03F3DA43BB681A40CC
:1034E0007B699A404FF0FF317B6901FA03F3D943BE
:1034F0007B680B40134318462437BD465DF8047BB8
:10350000704780B582B000AF78607868FFF74CFFF5
:1035100000BF0837BD4680BD80B586B000AF03460A
:10352000B9607A60FB7300237B61FFF761FF78610C
:103530007A68B9687869FFF7B1FF024697F90F30EA
:1035400011461846FFF780FF00BF1837BD4680BD03
:1035500080B582B000AF0346FB7197F9073018467B
:10356000FFF754FF00BF0837BD4680BD80B582B06D
:1035700000AF78607B68002B01D101230EE07B68EF
:103580005B79DBB2002B05D17B6800221A71786869
:10359000FDF7D2F87B6801225A71002318460837DC
:1035A000BD4680BD80B586B000AF786000237B61EA
:1035B000FFF7D8FA38617B68002B01D1012399E02D
:1035C0007B68022283F835207B68002283F8342050
:1035D0007B681B681A687B681B6822F001021A600E
:1035E0000FE0FFF7BFFA02463B69D31A052B08D953
:1035F0007B6820225A657B68032283F835200323E9
:1036000078E07B681B681B6803F00103002BE8D19E
:103610007B681B681B687B617A69384B13407B6150
:103620007B685A687B689B681A437B68DB681A432F
:103630007B681B691A437B685B691A437B689B69DB
:103640001A437B68DB691A437B681B6A13437A69F8
:1036500013437B617B685B6A042B07D17B68DA6A62
:103660007B681B6B13437A6913437B617B681B6820
:103670007A691A607B681B685B697B617B6923F0F0
:1036800007037B617B685B6A7A6913437B617B68B4
:103690005B6A042B17D17B689B6A7A6913437B6151
:1036A0007B68DB6A002B0ED0786800F00DFB0346C8
:1036B000002B08D07B6840225A657B68012283F882
:1036C0003520012316E07B681B687A695A617868A7
:1036D00000F0C4FA0346FB607B68DB6D3F229A4032
:1036E000FB689A607B6800225A657B68012283F838
:1036F0003520002318461837BD4680BD3F8010F0A6
:1037000080B586B000AFF860B9607A603B60002396
:10371000FB75FB689B6D3B61FB6893F83430012BB4
:1037200001D1022340E0FB68012283F83420FB68CA
:1037300093F83530DBB2012B2FD1FB68022283F8DE
:103740003520FB6800225A653B687A68B968F868DA
:1037500000F056FAFB68DB6D3F229A403B699A60A5
:10376000FB681B681A68FB681B6842F016021A6047
:10377000FB681B6C002B07D0FB681B681A68FB6892
:103780001B6842F008021A60FB681B681A68FB6835
:103790001B6842F001021A6005E0FB68002283F812
:1037A00034200223FB75FB7D18461837BD4680BDCB
:1037B00080B584B000AF78607B689B6DFB60FFF7DD
:1037C000D1F9B8607B6893F83530DBB2022B08D0B2
:1037D0007B6880225A657B68002283F834200123AD
:1037E00052E07B681B681A687B681B6822F016022F
:1037F0001A607B681B685A697B681B6822F080022C
:103800005A617B681B6C002B03D17B689B6C002B7F
:1038100007D07B681B681A687B681B6822F0080267
:103820001A607B681B681A687B681B6822F00102BB
:103830001A6013E0FFF796F90246BB68D31A052B0E
:103840000CD97B6820225A657B68032283F83520D7
:103850007B68002283F83420032315E07B681B6813
:103860001B6803F00103002BE4D17B68DB6D3F2272
:103870009A40FB689A607B68012283F835207B6858
:10388000002283F83420002318461037BD4680BD3F
:1038900080B483B000AF78607B6893F83530DBB2DA
:1038A000022B04D07B6880225A6501230CE07B68E0
:1038B000052283F835207B681B681A687B681B68C3
:1038C00022F001021A60002318460C37BD465DF84D
:1038D000047B704780B586B000AF78600023BB6082
:1038E0008E4B1B688E4AA2FB03239B0A7B617B687D
:1038F0009B6D3B613B691B68FB607B68DB6D08224D
:103900009A40FB681340002B1AD07B681B681B6829
:1039100003F00403002B13D07B681B681A687B68D4
:103920001B6822F004021A607B68DB6D08229A4053
:103930003B699A607B685B6D43F001027B685A6566
:103940007B68DB6D01229A40FB681340002B12D08C
:103950007B681B685B6903F08003002B0BD07B68DE
:10396000DB6D01229A403B699A607B685B6D43F096
:1039700002027B685A657B68DB6D04229A40FB6813
:103980001340002B12D07B681B681B6803F00203F6
:10399000002B0BD07B68DB6D04229A403B699A6058
:1039A0007B685B6D43F004027B685A657B68DB6D66
:1039B00010229A40FB681340002B43D07B681B68A1
:1039C0001B6803F00803002B3CD07B68DB6D1022E2
:1039D0009A403B699A607B681B681B6803F48023EC
:1039E000002B18D07B681B681B6803F40023002B96
:1039F00008D17B681B6C002B24D07B681B6C78681B
:103A000098471FE07B689B6C002B1BD07B689B6CEE
:103A10007868984716E07B681B681B6803F480731E
:103A2000002B07D17B681B681A687B681B6822F033
:103A300008021A607B681B6C002B03D07B681B6C30
:103A4000786898477B68DB6D20229A40FB681340BA
:103A5000002B00F08F807B681B681B6803F010034D
:103A6000002B00F087807B68DB6D20229A403B6949
:103A70009A607B6893F83530DBB2052B36D17B68D2
:103A80001B681A687B681B6822F016021A607B6844
:103A90001B685A697B681B6822F080025A617B6848
:103AA0001B6C002B03D17B689B6C002B07D07B68C1
:103AB0001B681A687B681B6822F008021A607B6822
:103AC000DB6D3F229A403B699A607B68012283F854
:103AD00035207B68002283F834207B681B6D002B27
:103AE0007ED07B681B6D7868984779E07B681B689F
:103AF0001B6803F48023002B1DD07B681B681B68A8
:103B000003F40023002B0DD17B685B6C002B31D0BC
:103B10007B685B6C786898472CE000BF0000002051
:103B2000B5814E1B7B68DB6B002B23D07B68DB6B86
:103B3000786898471EE07B681B681B6803F48073F5
:103B4000002B0FD17B681B681A687B681B6822F00A
:103B500010021A607B68012283F835207B680022FE
:103B600083F834207B68DB6B002B03D07B68DB6B36
:103B7000786898477B685B6D002B32D07B685B6D03
:103B800003F00103002B22D07B68052283F8352047
:103B90007B681B681A687B681B6822F001021A6048
:103BA000BB680133BB607A699A4207D37B681B68A4
:103BB0001B6803F00103002BF2D100E000BF7B681B
:103BC000012283F835207B68002283F834207B684B
:103BD000DB6C002B05D07B68DB6C7868984700E0D5
:103BE00000BF1837BD4680BD80B483B000AF786099
:103BF0007B685B6D18460C37BD465DF8047B7047EB
:103C000080B485B000AFF860B9607A603B60FB6853
:103C10001B681A68FB681B6822F480221A60FB6824
:103C20001B683A685A60FB689B68402B08D1FB68A8
:103C30001B687A689A60FB681B68BA68DA6007E0FC
:103C4000FB681B68BA689A60FB681B687A68DA6070
:103C500000BF1437BD465DF8047B704780B485B063
:103C600000AF78607B681B68DBB2103B144AA2FB94
:103C700003231B09FB60134AFB6813441B781A4695
:103C80007B68DA65FB68032B09D97B681B6823F422
:103C90007F7323F003031A1D7B689A6507E07B6836
:103CA0001B6823F47F7323F003037A6893657B68B2
:103CB0009B6D18461437BD465DF8047B704700BF06
:103CC000ABAAAAAABC4D010880B485B000AF786049
:103CD0000023FB737B689B6ABB607B689B69002B3E
:103CE0001FD1BB68032B56D801A252F823F000BFA6
:103CF000013D0008133D0008013D0008973D000804
:103D00007B68DB6A03F08073002B46D00123FB73D2
:103D100043E07B68DB6AB3F1C07F40D10123FB73D2
:103D20003DE07B689B69B3F5005F21D1BB68032B45
:103D300037D801A252F823F0493D00084F3D000852
:103D4000493D0008613D00080123FB7330E07B68BA
:103D5000DB6A03F08073002B25D00123FB7322E084
:103D60007B68DB6AB3F1C07F1FD10123FB731CE0CA
:103D7000BB68022B03D9BB68032B03D018E00123D7
:103D8000FB7315E07B68DB6A03F08073002B0ED0B9
:103D90000123FB730BE000BF0AE000BF08E000BF97
:103DA00006E000BF04E000BF02E000BF00E000BF8B
:103DB000FB7B18461437BD465DF8047B704700BF97
:103DC00080B489B000AF7860396000237B61002344
:103DD0003B610023BB610023FB616BE10122FB69B6
:103DE00002FA03F37B613B681B687A6913403B610D
:103DF0003A697B699A4240F05A813B685B6803F0FC
:103E00000303012B05D03B685B6803F00303022B1F
:103E100030D17B689B68BB61FB695B00032202FABF
:103E200003F3DB43BA691340BB613B68DA68FB69A3
:103E30005B0002FA03F3BA691343BB617B68BA699A
:103E40009A607B685B68BB610122FB6902FA03F33D
:103E5000DB43BA691340BB613B685B681B0903F035
:103E60000102FB6902FA03F3BA691343BB617B6881
:103E7000BA695A603B685B6803F00303032B17D0F1
:103E80007B68DB68BB61FB695B00032202FA03F31A
:103E9000DB43BA691340BB613B689A68FB695B000E
:103EA00002FA03F3BA691343BB617B68BA69DA604B
:103EB0003B685B6803F00303022B23D1FB69DA083C
:103EC0007B68083253F82230BB61FB6903F00703BB
:103ED0009B000F2202FA03F3DB43BA691340BB6174
:103EE0003B681A69FB6903F007039B0002FA03F3BE
:103EF000BA691343BB61FB69DA087B680832B969A8
:103F000043F822107B681B68BB61FB695B000322DE
:103F100002FA03F3DB43BA691340BB613B685B6899
:103F200003F00302FB695B0002FA03F3BA6913436F
:103F3000BB617B68BA691A603B685B6803F4403315
:103F4000002B00F0B4800023FB60604B5B6C5F4A89
:103F500043F4804353645D4B5B6C03F48043FB602C
:103F6000FB685B4AFB699B08023352F82330BB6154
:103F7000FB6903F003039B000F2202FA03F3DB4308
:103F8000BA691340BB617B68524A93422BD07B686D
:103F9000514A934225D07B68504A93421FD07B6898
:103FA0004F4A934219D07B684E4A934213D07B68A4
:103FB0004D4A93420DD07B684C4A934207D07B68B0
:103FC0004B4A934201D107230EE008230CE006235D
:103FD0000AE0052308E0042306E0032304E00223AB
:103FE00002E0012300E00023FA6902F003029200DC
:103FF0009340BA691343BB613549FB699B0802339F
:10400000BA6941F823203B4B9B68BB613B69DB43AA
:10401000BA691340BB613B685B6803F48013002BF3
:1040200003D0BA693B691343BB61324ABB699360F1
:10403000304BDB68BB613B69DB43BA691340BB6152
:104040003B685B6803F40013002B03D0BA693B693B
:104050001343BB61274ABB69D360264B5B68BB61D6
:104060003B69DB43BA691340BB613B685B6803F49F
:104070000033002B03D0BA693B691343BB611D4A6F
:10408000BB6953601B4B1B68BB613B69DB43BA696F
:104090001340BB613B685B6803F48033002B03D0A3
:1040A000BA693B691343BB61124ABB691360FB6980
:1040B0000133FB61FB690F2B7FF690AE00BF00BFA1
:1040C0002437BD465DF8047B704700BF00380240CE
:1040D0000038014000000240000402400008024095
:1040E000000C024000100240001402400018024080
:1040F000001C0240003C014080B485B000AF7860F5
:104100000B467B807B681A697B881340002B02D0AA
:104110000123FB7301E00023FB73FB7B184614377C
:10412000BD465DF8047B704780B483B000AF786013
:104130000B467B8013467B707B78002B03D07A88FC
:104140007B689A6103E07B881A047B689A6100BFF0
:104150000C37BD465DF8047B7047000080B584B025
:1041600000AF78607B68002B01D101232BE17B68D5
:1041700093F83D30DBB2002B06D17B68002283F838
:104180003C207868FCF7BEFD7B68242283F83D2044
:104190007B681B681A687B681B6822F001021A6042
:1041A0007B681B681A687B681B6842F400421A60CF
:1041B0007B681B681A687B681B6822F400421A60DF
:1041C00001F038F9F8607B685B68814A934207D850
:1041D000FB68804A934294BF01230023DBB206E0D0
:1041E000FB687D4A934294BF01230023DBB2002B7E
:1041F00001D00123E7E0FB68784AA2FB03239B0C74
:10420000BB607B681B685B6823F03F017B681B68B1
:10421000BA680A435A607B681B681B6A23F03F0137
:104220007B685B686A4A934202D8BB68013309E045
:10423000BB684FF4967202FB03F3694AA2FB0323A7
:104240009B0901337A6812680B4313627B681B6811
:10425000DB6923F44F4222F0FF027B685B685C4914
:104260008B4219D8FB68591E7B685B685B00B1FB09
:10427000F3F3591C40F6FC730B40002B0AD0FB688B
:10428000591E7B685B685B00B1FBF3F30133C3F33A
:104290000B0351E004234FE07B689B68002B11D196
:1042A000FB68581E7B6859680B465B000B44B0FBEB
:1042B000F3F30133C3F30B03002B0CBF01230023E3
:1042C000DBB212E0FB68581E7B6859680B469B0006
:1042D0000B4499000B44B0FBF3F30133C3F30B031E
:1042E000002B0CBF01230023DBB2002B01D00123E4
:1042F00022E07B689B68002B0ED1FB68581E7B6810
:1043000059680B465B000B44B0FBF3F30133C3F376
:104310000B0343F400430FE0FB68581E7B685968A9
:104320000B469B000B4499000B44B0FBF3F30133A5
:10433000C3F30B0343F44043796809681343CB612B
:104340007B681B681B6823F0C0017B68DA697B68A7
:104350001B6A1A437B681B680A431A607B681B68E8
:104360009B6823F4034323F0FF037A6811697A689A
:10437000D26811437A6812680B4393607B681B68AC
:10438000DB6823F0FF017B685A697B689B691A43ED
:104390007B681B680A43DA607B681B681A687B6865
:1043A0001B6842F001021A607B6800221A647B6875
:1043B000202283F83D207B6800221A637B6800225C
:1043C00083F83E20002318461037BD4680BD00BF4D
:1043D000A08601007F841E00FF083D0083DE1B4392
:1043E000D34D621080B588B002AFF8607A601A468B
:1043F0000B467B8113463B81FEF7B4FB7861FB687B
:1044000093F83D30DBB2202B40F0E0807B690093D5
:10441000192301227049F86800F064F90346002B63
:1044200001D00223D3E0FB6893F83C30012B01D18B
:104430000223CCE0FB68012283F83C20FB681B6868
:104440001B6803F00103012B07D0FB681B681A6887
:10445000FB681B6842F001021A60FB681B681A685F
:10446000FB681B6822F400621A60FB68212283F853
:104470003D20FB68102283F83E20FB6800221A646E
:10448000FB687A685A62FB683A895A85FB685B8DDB
:104490009AB2FB681A85FB68504ADA6279897B69AF
:1044A0003A6AF86800F09CF80346002B01D001231B
:1044B0008DE000233B61FB681B685B693B61FB6827
:1044C0001B689B693B613B6966E07A69396AF868F9
:1044D00000F022FA0346002B0DD0FB681B6C042B66
:1044E00007D1FB681B681A68FB681B6842F40072FE
:1044F0001A6001236BE0FB685B6A1A78FB681B6833
:104500001A61FB685B6A5A1CFB685A62FB685B8D28
:104510009BB2013B9AB2FB685A85FB681B8D013B3D
:104520009AB2FB681A85FB681B685B6903F0040399
:10453000042B1BD1FB681B8D002B17D0FB685B6A1B
:104540001A78FB681B681A61FB685B6A5A1CFB6877
:104550005A62FB685B8D9BB2013B9AB2FB685A853D
:10456000FB681B8D013B9AB2FB681A857A69396A30
:10457000F86800F019FA0346002B0DD0FB681B6C9D
:10458000042B07D1FB681B681A68FB681B6842F4A0
:1045900000721A6001231AE0FB681B8D002B94D176
:1045A000FB681B681A68FB681B6842F400721A609B
:1045B000FB68202283F83D20FB68002283F83E2020
:1045C000FB68002283F83C20002300E00223184609
:1045D0001837BD4680BD00BF020010000000FFFF7D
:1045E00080B588B002AFF8607A603B600B467B8193
:1045F000FB68DB6A7B617B69082B06D07B69012B3A
:1046000003D07B6913F5803F08D1FB681B681A68EB
:10461000FB681B6842F480721A600BE0FB681B6B3E
:10462000122B07D1FB681B681A68FB681B6842F4F1
:1046300080721A603B6800937B6800224FF0011182
:10464000F86800F04FF80346002B0DD0FB681B689C
:104650001B6803F48073B3F5807F03D1FB684FF4CC
:1046600000721A64032335E0FB681B69B3F5804FC1
:1046700008D17B89DBB21A46FB681B6802F0FE0298
:104680001A611BE07B89DB11DBB203F00603DBB2AE
:1046900063F00F03DAB2FB681B681A613B687A6843
:1046A0000E49F86800F098F80346002B01D001236A
:1046B00010E07B89DAB2FB681B681A613B687A6894
:1046C0000749F86800F088F80346002B01D0012361
:1046D00000E0002318461837BD4680BD08000100E1
:1046E0000200010080B584B000AFF860B9603B60A3
:1046F0001346FB7148E03B68B3F1FF3F44D0FEF73F
:1047000031FA0246BB69D31A3A689A4202D33B682F
:10471000002B39D1BB681B0CDBB2012B0DD1FB6820
:104720001B685B69DA43BB6813409BB2002B0CBF6C
:1047300001230023DBB21A460CE0FB681B689B696F
:10474000DA43BB6813409BB2002B0CBF012300234C
:10475000DBB21A46FB799A4216D1FB6800221A6333
:10476000FB68202283F83D20FB68002283F83E206E
:10477000FB681B6C43F02002FB681A64FB68002294
:1047800083F83C20012323E0BB681B0CDBB2012B28
:104790000DD1FB681B685B69DA43BB6813409BB2B1
:1047A000002B0CBF01230023DBB21A460CE0FB6890
:1047B0001B689B69DA43BB6813409BB2002B0CBF9C
:1047C00001230023DBB21A46FB799A4293D00023DF
:1047D00018461037BD4680BD80B584B000AFF86084
:1047E000B9607A603B6071E0FB681B685B6903F449
:1047F0008063B3F5806F23D1FB681B681A68FB6880
:104800001B6842F400721A60FB681B686FF48062D8
:104810005A61FB6800221A63FB68202283F83D205E
:10482000FB68002283F83E20FB681B6C43F0040207
:10483000FB681A64FB68002283F83C20012367E0D0
:104840007B68B3F1FF3F41D0FEF78CF902463B682D
:10485000D31A7A689A4202D37B68002B36D1BB68A0
:104860001B0CDBB2012B0CD1FB681B685B69DA43C4
:10487000BB6813409BB2002B14BF01230023DBB2A3
:104880000BE0FB681B689B69DA43BB6813409BB273
:10489000002B14BF01230023DBB2002B16D0FB68D2
:1048A00000221A63FB68202283F83D20FB68002267
:1048B00083F83E20FB681B6C43F02002FB681A64FF
:1048C000FB68002283F83C20012321E0BB681B0C1D
:1048D000DBB2012B0CD1FB681B685B69DA43BB6858
:1048E00013409BB2002B14BF01230023DBB20BE06B
:1048F000FB681B689B69DA43BB6813409BB2002BC3
:1049000014BF01230023DBB2002B7FF46DAF002323
:1049100018461037BD4680BD80B584B000AFF86042
:10492000B9607A6034E0F86800F086F80346002B3E
:1049300001D0012334E0BB68B3F1FF3F28D0FEF77C
:1049400011F902467B68D31ABA689A4202D3BB684F
:10495000002B1DD1FB681B685B6903F08003802B73
:1049600016D0FB6800221A63FB68202283F83D20E2
:10497000FB68002283F83E20FB681B6C43F020029A
:10498000FB681A64FB68002283F83C20012307E0DF
:10499000FB681B685B6903F08003802BC3D1002395
:1049A00018461037BD4680BD80B584B000AFF860B2
:1049B000B9607A6034E0F86800F03EF80346002BF6
:1049C00001D0012334E0BB68B3F1FF3F28D0FEF7EC
:1049D000C9F802467B68D31ABA689A4202D3BB6808
:1049E000002B1DD1FB681B685B6903F00403042BDB
:1049F00016D0FB6800221A63FB68202283F83D2052
:104A0000FB68002283F83E20FB681B6C43F0200209
:104A1000FB681A64FB68002283F83C20012307E04E
:104A2000FB681B685B6903F00403042BC3D10023FC
:104A300018461037BD4680BD80B483B000AF7860A3
:104A40007B681B685B6903F48063B3F5806F1BD1DF
:104A50007B681B686FF480625A617B6800221A636E
:104A60007B68202283F83D207B68002283F83E206B
:104A70007B681B6C43F004027B681A647B6800222D
:104A800083F83C20012300E0002318460C37BD4684
:104A90005DF8047B704780B584B000AF78607B68B8
:104AA000002B01D1012336E07B681B684CF6CC4219
:104AB0001A607B681B6845F255521A607B681B6858
:104AC0007A6852685A607B681B687A6892689A6054
:104AD000FEF748F8F86011E0FEF744F80246FB687C
:104AE000D31A41F60102934208D97B681B68DB6840
:104AF00003F00303002B01D003230CE07B681B6849
:104B0000DB6803F00303002BE6D17B681B684AF6E1
:104B1000AA221A60002318461037BD4680BD80B413
:104B200083B000AF78607B681B684AF6AA221A60DF
:104B3000002318460C37BD465DF8047B7047000023
:104B400080B586B000AF78607B68002B01D101236F
:104B500067E27B681B6803F00103002B75D0884B6C
:104B60009B6803F00C03042B0CD0854B9B6803F06F
:104B70000C03082B12D1824B5B6803F48003B3F55E
:104B8000800F0BD17E4B1B6803F40033002B5BD0EE
:104B90007B685B68002B57D1012342E27B685B682E
:104BA000B3F5803F06D1764B1B68754A43F48033DA
:104BB00013601DE07B685B68B3F5A02F0CD1704BD0
:104BC0001B686F4A43F4802313606D4B1B686C4A6B
:104BD00043F4803313600BE0694B1B68684A23F48D
:104BE00080331360664B1B68654A23F4802313608F
:104BF0007B685B68002B13D0FDF7B4FF386108E0D9
:104C0000FDF7B0FF02463B69D31A642B01D9032399
:104C100007E25B4B1B6803F40033002BF0D014E079
:104C2000FDF7A0FF386108E0FDF79CFF02463B69F5
:104C3000D31A642B01D90323F3E1514B1B6803F40E
:104C40000033002BF0D100E000BF7B681B6803F04D
:104C50000203002B63D04A4B9B6803F00C03002B2C
:104C60000BD0474B9B6803F00C03082B1CD1444B23
:104C70005B6803F48003002B16D1414B1B6803F0E3
:104C80000203002B05D07B68DB68012B01D00123D8
:104C9000C7E13B4B1B6823F0F8027B681B69DB0014
:104CA000374913430B603AE07B68DB68002B20D068
:104CB000344B01221A60FDF755FF386108E0FDF71B
:104CC00051FF02463B69D31A022B01D90323A8E105
:104CD0002B4B1B6803F00203002BF0D0284B1B6802
:104CE00023F0F8027B681B69DB00254913430B6046
:104CF00015E0244B00221A60FDF734FF386108E00C
:104D0000FDF730FF02463B69D31A022B01D903237A
:104D100087E11B4B1B6803F00203002BF0D17B687B
:104D20001B6803F00803002B36D07B685B69002BFF
:104D300016D0154B01221A60FDF714FF386108E008
:104D4000FDF710FF02463B69D31A022B01D903235A
:104D500067E10B4B5B6F03F00203002BF0D01BE00D
:104D6000094B00221A60FDF7FDFE38610EE0FDF7E9
:104D7000F9FE02463B69D31A022B07D9032350E1FF
:104D80000038024000004742800E4742884B5B6F6C
:104D900003F00203002BEAD17B681B6803F00403D5
:104DA000002B00F097800023FB75814B1B6C03F0F8
:104DB0008053002B0FD10023BB607D4B1B6C7C4AC2
:104DC00043F0805313647A4B1B6C03F08053BB6039
:104DD000BB680123FB75774B1B6803F48073002BC2
:104DE00018D1744B1B68734A43F480731360FDF74A
:104DF000B9FE386108E0FDF7B5FE02463B69D31AFB
:104E0000022B01D903230CE16A4B1B6803F4807366
:104E1000002BF0D07B689B68012B06D1644B1B6F85
:104E2000634A43F0010313671CE07B689B68052B12
:104E30000CD15F4B1B6F5E4A43F0040313675C4B5E
:104E40001B6F5B4A43F0010313670BE0584B1B6F6A
:104E5000574A23F001031367554B1B6F544A23F045
:104E6000040313677B689B68002B15D0FDF77AFE5F
:104E700038610AE0FDF776FE02463B69D31A41F23B
:104E80008832934201D90323CBE0494B1B6F03F0D7
:104E90000203002BEED014E0FDF764FE38610AE057
:104EA000FDF760FE02463B69D31A41F28832934215
:104EB00001D90323B5E03E4B1B6F03F00203002B27
:104EC000EED1FB7D012B05D1394B1B6C384A23F009
:104ED000805313647B689B69002B00F0A180344BE6
:104EE0009B6803F00C03082B5CD07B689B69022B4A
:104EF00041D1314B00221A60FDF734FE386108E0E1
:104F0000FDF730FE02463B69D31A022B01D9032379
:104F100087E0274B1B6803F00073002BF0D17B6800
:104F2000DA697B681B6A1A437B685B6A9B011A43D8
:104F30007B689B6A5B08013B1B041A437B68DB6A46
:104F40001B061B4913434B601B4B01221A60FDF7E4
:104F500009FE386108E0FDF705FE02463B69D31AF9
:104F6000022B01D903235CE0114B1B6803F0007393
:104F7000002BF0D054E0104B00221A60FDF7F2FD38
:104F8000386108E0FDF7EEFD02463B69D31A022BBB
:104F900001D9032345E0064B1B6803F00073002B87
:104FA000F0D13DE07B689B69012B07D1012338E0FC
:104FB0000038024000700040600047421B4B5B68B5
:104FC000FB607B689B69012B28D0FB6803F480029F
:104FD0007B68DB699A4221D1FB6803F03F027B6862
:104FE0001B6A9A421AD1FA6847F6C07313407A686E
:104FF000526A9201934211D1FB6803F440327B68FC
:105000009B6A5B08013B1B049A4207D1FB6803F0D3
:1050100070627B68DB6A1B069A4201D0012300E0C4
:10502000002318461837BD4680BD00BF0038024037
:1050300080B584B000AF786039607B68002B01D107
:105040000123CCE0684B1B6803F007033A689A42DF
:105050000CD9654B3A68D2B21A70634B1B6803F0E7
:1050600007033A689A4201D00123B8E07B681B68C5
:1050700003F00203002B20D07B681B6803F00403BD
:10508000002B05D0594B9B68584A43F4E05393607A
:105090007B681B6803F00803002B05D0534B9B680B
:1050A000524A43F460439360504B9B6823F0F002F4
:1050B0007B689B684D4913438B607B681B6803F0DA
:1050C0000103002B44D07B685B68012B07D1474B61
:1050D0001B6803F40033002B19D101237FE07B68A8
:1050E0005B68022B03D07B685B68032B07D13F4BC7
:1050F0001B6803F00073002B09D101236FE03B4BC9
:105100001B6803F00203002B01D1012367E0374B3A
:105110009B6823F003027B685B68344913438B6010
:10512000FDF720FDF8600AE0FDF71CFD0246FB6874
:10513000D31A41F28832934201D903234FE02B4B1B
:105140009B6803F00C027B685B689B009A42EBD182
:10515000254B1B6803F007033A689A420CD2224B96
:105160003A68D2B21A70204B1B6803F007033A6802
:105170009A4201D0012332E07B681B6803F00403EC
:10518000002B08D0194B9B6823F4E0527B68DB6846
:10519000164913438B607B681B6803F00803002BE0
:1051A00009D0124B9B6823F460427B681B69DB00CB
:1051B0000E4913438B6000F02DF802460B4B9B68A1
:1051C0001B0903F00F030A49CB5C22FA03F3094AD7
:1051D0001360094B1B681846FCF72CF8002318468F
:1051E0001037BD4680BD00BF003C02400038024081
:1051F000A44D0108000000200400002080B400AF8E
:10520000034B01221A6000BFBD465DF8047B704766
:105210004C0047422DE9B04F94B000AF00237B64AF
:105220000023FB6400233B640023BB64794B9B6831
:1052300003F00C03082B0DD0082B00F2E180002BAB
:1052400002D0042B03D0DBE0734BBB64DBE0724B7A
:10525000BB64D8E06F4B5B6803F03F037B646D4B2E
:105260005B6803F48003002B63D06A4B5B689B0987
:105270000022BB63FA63BB6BC3F308033B630023E9
:105280007B63D7E90C4522462B464FF000004FF0D8
:105290000001590141EAD261500102460B46214604
:1052A000511A3961294663EB01037B614FF000021B
:1052B0004FF00003D7E904AB59468B01514643EA4E
:1052C000916351468A015146B2EB0108594663EB9E
:1052D00001094FF000024FF000034FEAC90343EA0F
:1052E00058734FEAC80290469946234618EB0303C9
:1052F000BB602B4649EB0303FB604FF000024FF00D
:105300000003D7E9024529468B02214643EA91531F
:1053100021468A02104619467B6C0022BB62FA6263
:10532000D7E90A23FAF7A4FF02460B461346FB64AB
:1053300058E0384B5B689B09002218461146C0F3C1
:1053400008033B6200237B62D7E9088942464B464B
:105350004FF000004FF00001590141EAD2615001C5
:1053600002460B464146B2EB010A494663EB010B8C
:105370004FF000024FF000034FEA8B1343EA9A63A9
:105380004FEA8A12B2EB0A0463EB0B054FF00002FE
:105390004FF00003EB0043EA5473E20014461D464D
:1053A0004346E3183B604B4645EB03037B604FF0FD
:1053B00000024FF00003D7E9004529468B02214641
:1053C00043EA915321468A02104619467B6C00221B
:1053D000BB61FA61D7E90623FAF74AFF02460B469A
:1053E0001346FB640B4B5B681B0C03F00303013398
:1053F0005B003B64FA6C3B6CB2FBF3F3BB6402E012
:10540000054BBB6400BFBB6C18465037BD46BDE8BA
:10541000B08F00BF003802400024F40080B400AF19
:10542000034B1B681846BD465DF8047B704700BF00
:105430000000002080B500AFFFF7F0FF0246054BEB
:105440009B689B0A03F007030349CB5C22FA03F332
:10545000184680BD00380240B44D010880B500AF49
:10546000FFF7DCFF0246054B9B685B0B03F007036D
:105470000349CB5C22FA03F3184680BD0038024092
:10548000B44D010880B483B000AF786039607B68A8
:105490000F221A60124B9B6803F003027B685A606C
:1054A0000F4B9B6803F0F0027B689A600C4B9B6883
:1054B00003F4E0527B68DA60094B9B68DB0803F475
:1054C000E0527B681A61074B1B6803F007023B68D8
:1054D0001A6000BF0C37BD465DF8047B704700BF03
:1054E00000380240003C024080B500AF064BDB684C
:1054F00003F08003802B04D100F00AF8034B8022D4
:105500001A7000BF80BD00BF003802400E38024054
:1055100080B400AF00BFBD465DF8047B704700005B
:1055200080B582B000AF78607B68002B01D1012389
:105530009BE07B685B6A002B08D17B685B68B3F5F6
:10554000827F09D07B680022DA6105E07B68002257
:105550001A617B6800225A617B6800229A627B682C
:1055600093F85130DBB2002B26D17B68002283F800
:1055700050207B683F4A9A657B683F4ADA657B68C2
:105580003E4A1A667B683E4A5A667B683D4A9A667E
:105590007B683D4ADA667B683C4A1A677B683C4A0E
:1055A0005A677B689B6F002B02D17B68394A9A67E8
:1055B0007B689B6F786898477B68022283F851204C
:1055C0007B681B681A687B681B6822F040021A60BF
:1055D0007B685B6803F482727B689B6803F4044316
:1055E0001A437B68DB6803F400631A437B681B691A
:1055F00003F002031A437B685B6903F001031A435B
:105600007B689B6903F400731A437B68DB6903F0D2
:1056100038031A437B681B6A03F0800342EA0301E4
:105620007B689B6A03F400527B681B680A431A601C
:105630007B689B691B0C03F004017B685B6A03F0C9
:1056400010027B681B680A435A607B681B68DA6932
:105650007B681B6822F40062DA617B6800225A656D
:105660007B68012283F85120002318460837BD4685
:1056700080BD00BFE9590008FD590008115A000813
:10568000255A0008395A00084D5A0008615A000886
:10569000755A0008B910000880B584B000AFF860F2
:1056A000B9601346FB80FB6893F85130DBB2012BE5
:1056B00001D0022397E0BB68002B02D0FB88002BAF
:1056C00001D101238FE0FB6893F85030012B01D109
:1056D000022388E0FB68012283F85020FB68032244
:1056E00083F85120FB6800225A65FB68BA681A6388
:1056F000FB68FA889A86FB68FA88DA86FB680022DB
:105700009A63FB6800225A64FB6800221A64FB68F3
:1057100000229A87FB680022DA87FB689B68B3F552
:10572000004F0FD1FB681B681A68FB681B6822F0EA
:1057300040021A60FB681B681A68FB681B6842F429
:1057400080421A60FB689B6C294A1A64FB689B6C58
:10575000284ADA63FB689B6C274ADA64FB689B6C17
:1057600000221A65FB68986CFB681B6B1946FB6886
:105770001B680C331A46FB68DB8E9BB2FDF7C0FF3B
:105780000346002B0BD0FB685B6D43F01002FB68F7
:105790005A65FB68002283F85020012323E0FB6850
:1057A0001B681B6803F04003402B07D0FB681B6895
:1057B0001A68FB681B6842F040021A60FB6800220E
:1057C00083F85020FB681B685A68FB681B6842F02E
:1057D00020025A60FB681B685A68FB681B6842F02D
:1057E00002025A60002318461037BD4680BD00BF34
:1057F000355B0008895A0008535B000880B588B003
:1058000000AF78607B681B685B68FB617B681B6826
:105810009B68BB61BB6903F04003002B0ED1BB69E1
:1058200003F00103002B09D0FB6903F04003002BB8
:1058300004D07B681B6C78689847CFE0BB6903F0A5
:105840000203002B09D0FB6903F08003002B04D076
:105850007B685B6C78689847C0E0BB6903F0200305
:10586000002B0AD1BB6903F04003002B05D1BB69B3
:1058700003F48073002B00F0B180FB6903F0200378
:10588000002B00F0AB80BB6903F04003002B23D05A
:105890007B6893F85130DBB2032B11D07B685B6DD2
:1058A00043F004027B685A6500237B617B681B68B8
:1058B000DB687B617B681B689B687B617B690BE0B5
:1058C00000233B617B681B68DB683B617B681B686E
:1058D0009B683B613B6981E0BB6903F02003002BBF
:1058E00014D07B685B6D43F001027B685A6500232E
:1058F000FB607B681B689B68FB607B681B681A68A1
:105900007B681B6822F040021A60FB68BB6903F4E5
:105910008073002B0CD07B685B6D43F008027B68C2
:105920005A650023BB607B681B689B68BB60BB68D3
:105930007B685B6D002B50D07B681B685A687B6866
:105940001B6822F0E0025A607B68012283F8512034
:10595000FB6903F00203002B04D1FB6903F0010390
:10596000002B34D07B681B685A687B681B6822F068
:1059700003025A607B68DB6C002B11D07B68DB6C08
:10598000184A1A657B68DB6C1846FDF781FF0346F1
:10599000002B05D07B685B6D43F040027B685A6545
:1059A0007B689B6C002B17D07B689B6C0D4A1A653B
:1059B0007B689B6C1846FDF76BFF0346002B0BD0F2
:1059C0007B685B6D43F040027B685A6504E07B684E
:1059D0001B6F7868984700E000BF00BF2037BD46C6
:1059E00080BD00BF955B000880B483B000AF7860D5
:1059F00000BF0C37BD465DF8047B704780B483B0B0
:105A000000AF786000BF0C37BD465DF8047B70477F
:105A100080B483B000AF786000BF0C37BD465DF83E
:105A2000047B704780B483B000AF786000BF0C3750
:105A3000BD465DF8047B704780B483B000AF7860EA
:105A400000BF0C37BD465DF8047B704780B483B05F
:105A500000AF786000BF0C37BD465DF8047B70472F
:105A600080B483B000AF786000BF0C37BD465DF8EE
:105A7000047B704780B483B000AF786000BF0C3700
:105A8000BD465DF8047B704780B586B000AF786096
:105A90007B689B6B7B61FDF765F838617B681B68F1
:105AA0001B6803F48073B3F5807F3CD07B691B686F
:105AB0005A687B691B6822F020025A607B691B6868
:105AC0005A687B691B6822F002025A603A696421B5
:105AD000786900F0FDF80346002B05D07B695B6D0B
